{
  "_format": "hh-sol-artifact-1",
  "contractName": "AutoPay",
  "sourceName": "contracts/AutoPay.sol",
  "abi": [
    {
      "inputs": [],
      "stateMutability": "nonpayable",
      "type": "constructor"
    },
    {
      "inputs": [
        {
          "internalType": "string",
          "name": "_name",
          "type": "string"
        },
        {
          "internalType": "string",
          "name": "_phone",
          "type": "string"
        },
        {
          "internalType": "address payable",
          "name": "_employeeAddress",
          "type": "address"
        },
        {
          "internalType": "uint256",
          "name": "_salary",
          "type": "uint256"
        }
      ],
      "name": "addEmployee",
      "outputs": [
        {
          "internalType": "uint256",
          "name": "",
          "type": "uint256"
        }
      ],
      "stateMutability": "nonpayable",
      "type": "function"
    },
    {
      "inputs": [],
      "name": "balance",
      "outputs": [
        {
          "internalType": "uint256",
          "name": "",
          "type": "uint256"
        }
      ],
      "stateMutability": "view",
      "type": "function"
    },
    {
      "inputs": [
        {
          "internalType": "address",
          "name": "_address",
          "type": "address"
        }
      ],
      "name": "depositMoney",
      "outputs": [],
      "stateMutability": "payable",
      "type": "function"
    },
    {
      "inputs": [],
      "name": "getBalance",
      "outputs": [
        {
          "internalType": "uint256",
          "name": "",
          "type": "uint256"
        }
      ],
      "stateMutability": "view",
      "type": "function"
    },
    {
      "inputs": [
        {
          "internalType": "uint256",
          "name": "_id",
          "type": "uint256"
        }
      ],
      "name": "getEmployee",
      "outputs": [
        {
          "components": [
            {
              "internalType": "uint256",
              "name": "id",
              "type": "uint256"
            },
            {
              "internalType": "string",
              "name": "name",
              "type": "string"
            },
            {
              "internalType": "string",
              "name": "phone",
              "type": "string"
            },
            {
              "internalType": "address payable",
              "name": "employeeAddress",
              "type": "address"
            },
            {
              "internalType": "address",
              "name": "employerAddress",
              "type": "address"
            },
            {
              "internalType": "uint256",
              "name": "salary",
              "type": "uint256"
            },
            {
              "internalType": "uint256",
              "name": "balance",
              "type": "uint256"
            }
          ],
          "internalType": "struct AutoPay.Employee",
          "name": "",
          "type": "tuple"
        }
      ],
      "stateMutability": "view",
      "type": "function"
    },
    {
      "inputs": [],
      "name": "getEmployeeCount",
      "outputs": [
        {
          "internalType": "uint256",
          "name": "",
          "type": "uint256"
        }
      ],
      "stateMutability": "view",
      "type": "function"
    },
    {
      "inputs": [],
      "name": "getEmployes",
      "outputs": [
        {
          "components": [
            {
              "internalType": "uint256",
              "name": "id",
              "type": "uint256"
            },
            {
              "internalType": "string",
              "name": "name",
              "type": "string"
            },
            {
              "internalType": "string",
              "name": "phone",
              "type": "string"
            },
            {
              "internalType": "address payable",
              "name": "employeeAddress",
              "type": "address"
            },
            {
              "internalType": "address",
              "name": "employerAddress",
              "type": "address"
            },
            {
              "internalType": "uint256",
              "name": "salary",
              "type": "uint256"
            },
            {
              "internalType": "uint256",
              "name": "balance",
              "type": "uint256"
            }
          ],
          "internalType": "struct AutoPay.Employee[]",
          "name": "",
          "type": "tuple[]"
        }
      ],
      "stateMutability": "view",
      "type": "function"
    },
    {
      "inputs": [],
      "name": "payAll",
      "outputs": [
        {
          "internalType": "bool",
          "name": "",
          "type": "bool"
        }
      ],
      "stateMutability": "nonpayable",
      "type": "function"
    },
    {
      "inputs": [
        {
          "internalType": "uint256",
          "name": "_id",
          "type": "uint256"
        }
      ],
      "name": "payOne",
      "outputs": [
        {
          "internalType": "bool",
          "name": "",
          "type": "bool"
        }
      ],
      "stateMutability": "nonpayable",
      "type": "function"
    },
    {
      "inputs": [
        {
          "internalType": "uint256",
          "name": "_id",
          "type": "uint256"
        },
        {
          "internalType": "uint256",
          "name": "_amount",
          "type": "uint256"
        }
      ],
      "name": "sendMoney",
      "outputs": [
        {
          "internalType": "address",
          "name": "",
          "type": "address"
        }
      ],
      "stateMutability": "nonpayable",
      "type": "function"
    },
    {
      "inputs": [],
      "name": "withdrawBalance",
      "outputs": [
        {
          "internalType": "bool",
          "name": "",
          "type": "bool"
        }
      ],
      "stateMutability": "nonpayable",
      "type": "function"
    }
  ],
  "bytecode": "0x608060405234801561001057600080fd5b5033600160006101000a81548173ffffffffffffffffffffffffffffffffffffffff021916908373ffffffffffffffffffffffffffffffffffffffff16021790555061271d806100616000396000f3fe60806040526004361061009c5760003560e01c8063b69ef8a811610064578063b69ef8a814610169578063bca9a5c514610194578063bd478243146101d1578063c2a63e3b1461020e578063c38253aa14610239578063fed114b4146102765761009c565b806312065fe0146100a15780634840bc97146100cc5780634a68533f146100f75780635806beaf146101135780635fd8c7101461013e575b600080fd5b3480156100ad57600080fd5b506100b66102b3565b6040516100c391906122b7565b60405180910390f35b3480156100d857600080fd5b506100e16102fa565b6040516100ee91906121d8565b60405180910390f35b610111600480360381019061010c9190611dae565b6106c5565b005b34801561011f57600080fd5b50610128610778565b60405161013591906121fa565b60405180910390f35b34801561014a57600080fd5b50610153610c47565b60405161016091906121fa565b60405180910390f35b34801561017557600080fd5b5061017e610dff565b60405161018b91906122b7565b60405180910390f35b3480156101a057600080fd5b506101bb60048036038101906101b69190611e6a565b610e05565b6040516101c89190612295565b60405180910390f35b3480156101dd57600080fd5b506101f860048036038101906101f39190611e93565b611098565b60405161020591906121bd565b60405180910390f35b34801561021a57600080fd5b506102236114f9565b60405161023091906122b7565b60405180910390f35b34801561024557600080fd5b50610260600480360381019061025b9190611e6a565b611543565b60405161026d91906121fa565b60405180910390f35b34801561028257600080fd5b5061029d60048036038101906102989190611dd7565b6119a9565b6040516102aa91906122b7565b60405180910390f35b6000600560003373ffffffffffffffffffffffffffffffffffffffff1673ffffffffffffffffffffffffffffffffffffffff16815260200190815260200160002054905090565b60606000600460003373ffffffffffffffffffffffffffffffffffffffff1673ffffffffffffffffffffffffffffffffffffffff16815260200190815260200160002080548060200260200160405190810160405280929190818152602001828054801561038757602002820191906000526020600020905b815481526020019060010190808311610373575b505050505090506000815167ffffffffffffffff8111156103d1577f4e487b7100000000000000000000000000000000000000000000000000000000600052604160045260246000fd5b60405190808252806020026020018201604052801561040a57816020015b6103f7611bfb565b8152602001906001900390816103ef5790505b50905060005b82518110156106bc5760036000848381518110610456577f4e487b7100000000000000000000000000000000000000000000000000000000600052603260045260246000fd5b602002602001015181526020019081526020016000206040518060e001604052908160008201548152602001600182018054610491906124b4565b80601f01602080910402602001604051908101604052809291908181526020018280546104bd906124b4565b801561050a5780601f106104df5761010080835404028352916020019161050a565b820191906000526020600020905b8154815290600101906020018083116104ed57829003601f168201915b50505050508152602001600282018054610523906124b4565b80601f016020809104026020016040519081016040528092919081815260200182805461054f906124b4565b801561059c5780601f106105715761010080835404028352916020019161059c565b820191906000526020600020905b81548152906001019060200180831161057f57829003601f168201915b505050505081526020016003820160009054906101000a900473ffffffffffffffffffffffffffffffffffffffff1673ffffffffffffffffffffffffffffffffffffffff1673ffffffffffffffffffffffffffffffffffffffff1681526020016004820160009054906101000a900473ffffffffffffffffffffffffffffffffffffffff1673ffffffffffffffffffffffffffffffffffffffff1673ffffffffffffffffffffffffffffffffffffffff1681526020016005820154815260200160068201548152505082828151811061069e577f4e487b7100000000000000000000000000000000000000000000000000000000600052603260045260246000fd5b602002602001018190525080806106b490612517565b915050610410565b50809250505090565b61071734600560008473ffffffffffffffffffffffffffffffffffffffff1673ffffffffffffffffffffffffffffffffffffffff16815260200190815260200160002054611bab90919063ffffffff16565b600560008373ffffffffffffffffffffffffffffffffffffffff1673ffffffffffffffffffffffffffffffffffffffff1681526020019081526020016000208190555061076f34600254611bab90919063ffffffff16565b60028190555050565b600080600090506000600460003373ffffffffffffffffffffffffffffffffffffffff1673ffffffffffffffffffffffffffffffffffffffff16815260200190815260200160002080548060200260200160405190810160405280929190818152602001828054801561080a57602002820191906000526020600020905b8154815260200190600101908083116107f6575b5050505050905060005b8151811015610b8d5760006003600084848151811061085c577f4e487b7100000000000000000000000000000000000000000000000000000000600052603260045260246000fd5b602002602001015181526020019081526020016000206040518060e001604052908160008201548152602001600182018054610897906124b4565b80601f01602080910402602001604051908101604052809291908181526020018280546108c3906124b4565b80156109105780601f106108e557610100808354040283529160200191610910565b820191906000526020600020905b8154815290600101906020018083116108f357829003601f168201915b50505050508152602001600282018054610929906124b4565b80601f0160208091040260200160405190810160405280929190818152602001828054610955906124b4565b80156109a25780601f10610977576101008083540402835291602001916109a2565b820191906000526020600020905b81548152906001019060200180831161098557829003601f168201915b505050505081526020016003820160009054906101000a900473ffffffffffffffffffffffffffffffffffffffff1673ffffffffffffffffffffffffffffffffffffffff1673ffffffffffffffffffffffffffffffffffffffff1681526020016004820160009054906101000a900473ffffffffffffffffffffffffffffffffffffffff1673ffffffffffffffffffffffffffffffffffffffff1673ffffffffffffffffffffffffffffffffffffffff16815260200160058201548152602001600682015481525050905060008160a00151905080600560003373ffffffffffffffffffffffffffffffffffffffff1673ffffffffffffffffffffffffffffffffffffffff168152602001908152602001600020541015610af8576040517f08c379a0000000000000000000000000000000000000000000000000000000008152600401610aef90612275565b60405180910390fd5b610b0f818360c00151611bab90919063ffffffff16565b8260c0018181525050610b2b8186611bab90919063ffffffff16565b9450816060015173ffffffffffffffffffffffffffffffffffffffff166108fc829081150290604051600060405180830381858888f19350505050158015610b77573d6000803e3d6000fd5b5050508080610b8590612517565b915050610814565b50610be082600560003373ffffffffffffffffffffffffffffffffffffffff1673ffffffffffffffffffffffffffffffffffffffff16815260200190815260200160002054611bc190919063ffffffff16565b600560003373ffffffffffffffffffffffffffffffffffffffff1673ffffffffffffffffffffffffffffffffffffffff16815260200190815260200160002081905550610c3882600254611bc190919063ffffffff16565b60028190555060019250505090565b600080600560003373ffffffffffffffffffffffffffffffffffffffff1673ffffffffffffffffffffffffffffffffffffffff1681526020019081526020016000205490506000600560003373ffffffffffffffffffffffffffffffffffffffff1673ffffffffffffffffffffffffffffffffffffffff1681526020019081526020016000205411610d0e576040517f08c379a0000000000000000000000000000000000000000000000000000000008152600401610d0590612235565b60405180910390fd5b610d6081600560003373ffffffffffffffffffffffffffffffffffffffff1673ffffffffffffffffffffffffffffffffffffffff16815260200190815260200160002054611bc190919063ffffffff16565b600560003373ffffffffffffffffffffffffffffffffffffffff1673ffffffffffffffffffffffffffffffffffffffff16815260200190815260200160002081905550610db881600254611bc190919063ffffffff16565b60028190555060003373ffffffffffffffffffffffffffffffffffffffff166108fc839081150290604051600060405180830381858888f193505050509050809250505090565b60025481565b610e0d611bfb565b6000600360008481526020019081526020016000206040518060e001604052908160008201548152602001600182018054610e47906124b4565b80601f0160208091040260200160405190810160405280929190818152602001828054610e73906124b4565b8015610ec05780601f10610e9557610100808354040283529160200191610ec0565b820191906000526020600020905b815481529060010190602001808311610ea357829003601f168201915b50505050508152602001600282018054610ed9906124b4565b80601f0160208091040260200160405190810160405280929190818152602001828054610f05906124b4565b8015610f525780601f10610f2757610100808354040283529160200191610f52565b820191906000526020600020905b815481529060010190602001808311610f3557829003601f168201915b505050505081526020016003820160009054906101000a900473ffffffffffffffffffffffffffffffffffffffff1673ffffffffffffffffffffffffffffffffffffffff1673ffffffffffffffffffffffffffffffffffffffff1681526020016004820160009054906101000a900473ffffffffffffffffffffffffffffffffffffffff1673ffffffffffffffffffffffffffffffffffffffff1673ffffffffffffffffffffffffffffffffffffffff1681526020016005820154815260200160068201548152505090503373ffffffffffffffffffffffffffffffffffffffff16816080015173ffffffffffffffffffffffffffffffffffffffff161461108f576040517f08c379a000000000000000000000000000000000000000000000000000000000815260040161108690612215565b60405180910390fd5b80915050919050565b600080600360008581526020019081526020016000206040518060e0016040529081600082015481526020016001820180546110d3906124b4565b80601f01602080910402602001604051908101604052809291908181526020018280546110ff906124b4565b801561114c5780601f106111215761010080835404028352916020019161114c565b820191906000526020600020905b81548152906001019060200180831161112f57829003601f168201915b50505050508152602001600282018054611165906124b4565b80601f0160208091040260200160405190810160405280929190818152602001828054611191906124b4565b80156111de5780601f106111b3576101008083540402835291602001916111de565b820191906000526020600020905b8154815290600101906020018083116111c157829003601f168201915b505050505081526020016003820160009054906101000a900473ffffffffffffffffffffffffffffffffffffffff1673ffffffffffffffffffffffffffffffffffffffff1673ffffffffffffffffffffffffffffffffffffffff1681526020016004820160009054906101000a900473ffffffffffffffffffffffffffffffffffffffff1673ffffffffffffffffffffffffffffffffffffffff1673ffffffffffffffffffffffffffffffffffffffff1681526020016005820154815260200160068201548152505090503373ffffffffffffffffffffffffffffffffffffffff16816080015173ffffffffffffffffffffffffffffffffffffffff161461131b576040517f08c379a000000000000000000000000000000000000000000000000000000000815260040161131290612215565b60405180910390fd5b82600560003373ffffffffffffffffffffffffffffffffffffffff1673ffffffffffffffffffffffffffffffffffffffff16815260200190815260200160002054101561139d576040517f08c379a000000000000000000000000000000000000000000000000000000000815260040161139490612275565b60405180910390fd5b6113ef83600560003373ffffffffffffffffffffffffffffffffffffffff1673ffffffffffffffffffffffffffffffffffffffff16815260200190815260200160002054611bc190919063ffffffff16565b600560003373ffffffffffffffffffffffffffffffffffffffff1673ffffffffffffffffffffffffffffffffffffffff16815260200190815260200160002081905550611449838260c00151611bab90919063ffffffff16565b8160c001818152505061146783600254611bc190919063ffffffff16565b6002819055506000816060015173ffffffffffffffffffffffffffffffffffffffff166108fc859081150290604051600060405180830381858888f193505050509050806114ea576040517f08c379a00000000000000000000000000000000000000000000000000000000081526004016114e190612255565b60405180910390fd5b81606001519250505092915050565b6000600460003373ffffffffffffffffffffffffffffffffffffffff1673ffffffffffffffffffffffffffffffffffffffff16815260200190815260200160002080549050905090565b600080600360008481526020019081526020016000206040518060e00160405290816000820154815260200160018201805461157e906124b4565b80601f01602080910402602001604051908101604052809291908181526020018280546115aa906124b4565b80156115f75780601f106115cc576101008083540402835291602001916115f7565b820191906000526020600020905b8154815290600101906020018083116115da57829003601f168201915b50505050508152602001600282018054611610906124b4565b80601f016020809104026020016040519081016040528092919081815260200182805461163c906124b4565b80156116895780601f1061165e57610100808354040283529160200191611689565b820191906000526020600020905b81548152906001019060200180831161166c57829003601f168201915b505050505081526020016003820160009054906101000a900473ffffffffffffffffffffffffffffffffffffffff1673ffffffffffffffffffffffffffffffffffffffff1673ffffffffffffffffffffffffffffffffffffffff1681526020016004820160009054906101000a900473ffffffffffffffffffffffffffffffffffffffff1673ffffffffffffffffffffffffffffffffffffffff1673ffffffffffffffffffffffffffffffffffffffff1681526020016005820154815260200160068201548152505090503373ffffffffffffffffffffffffffffffffffffffff16816080015173ffffffffffffffffffffffffffffffffffffffff16146117c6576040517f08c379a00000000000000000000000000000000000000000000000000000000081526004016117bd90612215565b60405180910390fd5b60008160a00151905080600560003373ffffffffffffffffffffffffffffffffffffffff1673ffffffffffffffffffffffffffffffffffffffff168152602001908152602001600020541015611851576040517f08c379a000000000000000000000000000000000000000000000000000000000815260040161184890612275565b60405180910390fd5b6118a381600560003373ffffffffffffffffffffffffffffffffffffffff1673ffffffffffffffffffffffffffffffffffffffff16815260200190815260200160002054611bc190919063ffffffff16565b600560003373ffffffffffffffffffffffffffffffffffffffff1673ffffffffffffffffffffffffffffffffffffffff168152602001908152602001600020819055506118fb81600254611bc190919063ffffffff16565b600281905550611918818360c00151611bab90919063ffffffff16565b8260c00181815250506000826060015173ffffffffffffffffffffffffffffffffffffffff166108fc839081150290604051600060405180830381858888f1935050505090508061199e576040517f08c379a000000000000000000000000000000000000000000000000000000000815260040161199590612255565b60405180910390fd5b809350505050919050565b6000806040518060e001604052806119c16000611bd7565b81526020018781526020018681526020018573ffffffffffffffffffffffffffffffffffffffff1681526020013373ffffffffffffffffffffffffffffffffffffffff168152602001848152602001600081525090508060036000611a266000611bd7565b8152602001908152602001600020600082015181600001556020820151816001019080519060200190611a5a929190611c64565b506040820151816002019080519060200190611a77929190611c64565b5060608201518160030160006101000a81548173ffffffffffffffffffffffffffffffffffffffff021916908373ffffffffffffffffffffffffffffffffffffffff16021790555060808201518160040160006101000a81548173ffffffffffffffffffffffffffffffffffffffff021916908373ffffffffffffffffffffffffffffffffffffffff16021790555060a0820151816005015560c08201518160060155905050600460003373ffffffffffffffffffffffffffffffffffffffff1673ffffffffffffffffffffffffffffffffffffffff168152602001908152602001600020611b666000611bd7565b9080600181540180825580915050600190039060005260206000200160009091909190915055611b966000611be5565b611ba06000611bd7565b915050949350505050565b60008183611bb9919061238e565b905092915050565b60008183611bcf91906123e4565b905092915050565b600081600001549050919050565b6001816000016000828254019250508190555050565b6040518060e00160405280600081526020016060815260200160608152602001600073ffffffffffffffffffffffffffffffffffffffff168152602001600073ffffffffffffffffffffffffffffffffffffffff16815260200160008152602001600081525090565b828054611c70906124b4565b90600052602060002090601f016020900481019282611c925760008555611cd9565b82601f10611cab57805160ff1916838001178555611cd9565b82800160010185558215611cd9579182015b82811115611cd8578251825591602001919060010190611cbd565b5b509050611ce69190611cea565b5090565b5b80821115611d03576000816000905550600101611ceb565b5090565b6000611d1a611d15846122f7565b6122d2565b905082815260208101848484011115611d3257600080fd5b611d3d848285612472565b509392505050565b600081359050611d54816126a2565b92915050565b600081359050611d69816126b9565b92915050565b600082601f830112611d8057600080fd5b8135611d90848260208601611d07565b91505092915050565b600081359050611da8816126d0565b92915050565b600060208284031215611dc057600080fd5b6000611dce84828501611d45565b91505092915050565b60008060008060808587031215611ded57600080fd5b600085013567ffffffffffffffff811115611e0757600080fd5b611e1387828801611d6f565b945050602085013567ffffffffffffffff811115611e3057600080fd5b611e3c87828801611d6f565b9350506040611e4d87828801611d5a565b9250506060611e5e87828801611d99565b91505092959194509250565b600060208284031215611e7c57600080fd5b6000611e8a84828501611d99565b91505092915050565b60008060408385031215611ea657600080fd5b6000611eb485828601611d99565b9250506020611ec585828601611d99565b9150509250929050565b6000611edb8383612059565b905092915050565b611eec8161242a565b82525050565b611efb81612418565b82525050565b611f0a81612418565b82525050565b6000611f1b82612338565b611f25818561235b565b935083602082028501611f3785612328565b8060005b85811015611f735784840389528151611f548582611ecf565b9450611f5f8361234e565b925060208a01995050600181019050611f3b565b50829750879550505050505092915050565b611f8e8161243c565b82525050565b6000611f9f82612343565b611fa9818561236c565b9350611fb9818560208601612481565b611fc2816125ed565b840191505092915050565b6000611fda601a8361237d565b9150611fe5826125fe565b602082019050919050565b6000611ffd601e8361237d565b915061200882612627565b602082019050919050565b600061202060108361237d565b915061202b82612650565b602082019050919050565b600061204360208361237d565b915061204e82612679565b602082019050919050565b600060e083016000830151612071600086018261219f565b50602083015184820360208601526120898282611f94565b915050604083015184820360408601526120a38282611f94565b91505060608301516120b86060860182611ee3565b5060808301516120cb6080860182611ef2565b5060a08301516120de60a086018261219f565b5060c08301516120f160c086018261219f565b508091505092915050565b600060e083016000830151612114600086018261219f565b506020830151848203602086015261212c8282611f94565b915050604083015184820360408601526121468282611f94565b915050606083015161215b6060860182611ee3565b50608083015161216e6080860182611ef2565b5060a083015161218160a086018261219f565b5060c083015161219460c086018261219f565b508091505092915050565b6121a881612468565b82525050565b6121b781612468565b82525050565b60006020820190506121d26000830184611f01565b92915050565b600060208201905081810360008301526121f28184611f10565b905092915050565b600060208201905061220f6000830184611f85565b92915050565b6000602082019050818103600083015261222e81611fcd565b9050919050565b6000602082019050818103600083015261224e81611ff0565b9050919050565b6000602082019050818103600083015261226e81612013565b9050919050565b6000602082019050818103600083015261228e81612036565b9050919050565b600060208201905081810360008301526122af81846120fc565b905092915050565b60006020820190506122cc60008301846121ae565b92915050565b60006122dc6122ed565b90506122e882826124e6565b919050565b6000604051905090565b600067ffffffffffffffff821115612312576123116125be565b5b61231b826125ed565b9050602081019050919050565b6000819050602082019050919050565b600081519050919050565b600081519050919050565b6000602082019050919050565b600082825260208201905092915050565b600082825260208201905092915050565b600082825260208201905092915050565b600061239982612468565b91506123a483612468565b9250827fffffffffffffffffffffffffffffffffffffffffffffffffffffffffffffffff038211156123d9576123d8612560565b5b828201905092915050565b60006123ef82612468565b91506123fa83612468565b92508282101561240d5761240c612560565b5b828203905092915050565b600061242382612448565b9050919050565b600061243582612448565b9050919050565b60008115159050919050565b600073ffffffffffffffffffffffffffffffffffffffff82169050919050565b6000819050919050565b82818337600083830152505050565b60005b8381101561249f578082015181840152602081019050612484565b838111156124ae576000848401525b50505050565b600060028204905060018216806124cc57607f821691505b602082108114156124e0576124df61258f565b5b50919050565b6124ef826125ed565b810181811067ffffffffffffffff8211171561250e5761250d6125be565b5b80604052505050565b600061252282612468565b91507fffffffffffffffffffffffffffffffffffffffffffffffffffffffffffffffff82141561255557612554612560565b5b600182019050919050565b7f4e487b7100000000000000000000000000000000000000000000000000000000600052601160045260246000fd5b7f4e487b7100000000000000000000000000000000000000000000000000000000600052602260045260246000fd5b7f4e487b7100000000000000000000000000000000000000000000000000000000600052604160045260246000fd5b6000601f19601f8301169050919050565b7f596f7520646f6e74206f776e207468697320656d706c6f796565000000000000600082015250565b7f4e6f7420656e6f7567682062616c616e636520746f2077697468647261770000600082015250565b7f416e206572726f72206f63637572656400000000000000000000000000000000600082015250565b7f596f7520646f6e74206861766520696e73756666696369656e742066756e6473600082015250565b6126ab81612418565b81146126b657600080fd5b50565b6126c28161242a565b81146126cd57600080fd5b50565b6126d981612468565b81146126e457600080fd5b5056fea2646970667358221220fadad84d87362a66b167a842d86d1be8d6eb84c35763d53da78c20817db4de4764736f6c63430008040033",
  "linkReferences": {},
  "deployedLinkReferences": {}
}